{
  "_format": "hh-sol-artifact-1",
  "contractName": "WavePortal",
  "sourceName": "contracts/WavePortal.sol",
  "abi": [
    {
      "inputs": [],
      "stateMutability": "payable",
      "type": "constructor"
    },
    {
      "anonymous": false,
      "inputs": [
        {
          "indexed": true,
          "internalType": "address",
          "name": "from",
          "type": "address"
        },
        {
          "indexed": false,
          "internalType": "uint256",
          "name": "timestamp",
          "type": "uint256"
        },
        {
          "indexed": false,
          "internalType": "string",
          "name": "message",
          "type": "string"
        }
      ],
      "name": "NewWave",
      "type": "event"
    },
    {
      "inputs": [],
      "name": "getTotalWaves",
      "outputs": [
        {
          "internalType": "uint256",
          "name": "",
          "type": "uint256"
        }
      ],
      "stateMutability": "view",
      "type": "function"
    },
    {
      "inputs": [
        {
          "internalType": "address",
          "name": "",
          "type": "address"
        }
      ],
      "name": "lastWavedAt",
      "outputs": [
        {
          "internalType": "uint256",
          "name": "",
          "type": "uint256"
        }
      ],
      "stateMutability": "view",
      "type": "function"
    },
    {
      "inputs": [],
      "name": "owner",
      "outputs": [
        {
          "internalType": "address",
          "name": "",
          "type": "address"
        }
      ],
      "stateMutability": "view",
      "type": "function"
    },
    {
      "inputs": [
        {
          "internalType": "string",
          "name": "_message",
          "type": "string"
        }
      ],
      "name": "wave",
      "outputs": [],
      "stateMutability": "nonpayable",
      "type": "function"
    },
    {
      "inputs": [],
      "name": "waveHistory",
      "outputs": [
        {
          "components": [
            {
              "internalType": "address",
              "name": "waver",
              "type": "address"
            },
            {
              "internalType": "string",
              "name": "message",
              "type": "string"
            },
            {
              "internalType": "uint256",
              "name": "timestamp",
              "type": "uint256"
            }
          ],
          "internalType": "struct WavePortal.Wave[]",
          "name": "",
          "type": "tuple[]"
        }
      ],
      "stateMutability": "view",
      "type": "function"
    }
  ],
  "bytecode": "0x60806040526200003360405180606001604052806025815260200162001801602591396200009c60201b620007141760201c565b33600260006101000a81548173ffffffffffffffffffffffffffffffffffffffff021916908373ffffffffffffffffffffffffffffffffffffffff16021790555060644442620000849190620001a1565b6200009091906200022d565b6000819055506200032d565b6200013c81604051602401620000b3919062000309565b6040516020818303038152906040527f41304fac000000000000000000000000000000000000000000000000000000007bffffffffffffffffffffffffffffffffffffffffffffffffffffffff19166020820180517bffffffffffffffffffffffffffffffffffffffffffffffffffffffff83818316178352505050506200013f60201b60201c565b50565b60008151905060006a636f6e736f6c652e6c6f679050602083016000808483855afa5050505050565b6000819050919050565b7f4e487b7100000000000000000000000000000000000000000000000000000000600052601160045260246000fd5b6000620001ae8262000168565b9150620001bb8362000168565b9250827fffffffffffffffffffffffffffffffffffffffffffffffffffffffffffffffff03821115620001f357620001f262000172565b5b828201905092915050565b7f4e487b7100000000000000000000000000000000000000000000000000000000600052601260045260246000fd5b60006200023a8262000168565b9150620002478362000168565b9250826200025a5762000259620001fe565b5b828206905092915050565b600081519050919050565b600082825260208201905092915050565b60005b83811015620002a157808201518184015260208101905062000284565b83811115620002b1576000848401525b50505050565b6000601f19601f8301169050919050565b6000620002d58262000265565b620002e1818562000270565b9350620002f381856020860162000281565b620002fe81620002b7565b840191505092915050565b60006020820190508181036000830152620003258184620002c8565b905092915050565b6114c4806200033d6000396000f3fe608060405234801561001057600080fd5b50600436106100575760003560e01c8063449d46c01461005c5780638da5cb5b146100785780639a2cdc0814610096578063a42a4663146100b4578063df29e652146100e4575b600080fd5b61007660048036038101906100719190610c43565b610102565b005b61008061057b565b60405161008d9190610ccd565b60405180910390f35b61009e6105a1565b6040516100ab9190610d01565b60405180910390f35b6100ce60048036038101906100c99190610d48565b6105ab565b6040516100db9190610d01565b60405180910390f35b6100ec6105c3565b6040516100f99190610f2d565b60405180910390f35b600260009054906101000a900473ffffffffffffffffffffffffffffffffffffffff1673ffffffffffffffffffffffffffffffffffffffff163373ffffffffffffffffffffffffffffffffffffffff161415610193576040517f08c379a000000000000000000000000000000000000000000000000000000000815260040161018a90610fd2565b60405180910390fd5b42610384600460003373ffffffffffffffffffffffffffffffffffffffff1673ffffffffffffffffffffffffffffffffffffffff168152602001908152602001600020546101e19190611021565b10610221576040517f08c379a0000000000000000000000000000000000000000000000000000000008152600401610218906110c3565b60405180910390fd5b42600460003373ffffffffffffffffffffffffffffffffffffffff1673ffffffffffffffffffffffffffffffffffffffff1681526020019081526020016000208190555060018060008282546102779190611021565b925050819055506102a160405180606001604052806040815260200161144f6040913933836107ad565b600360405180606001604052803373ffffffffffffffffffffffffffffffffffffffff16815260200183815260200142815250908060018154018082558091505060019003906000526020600020906003020160009091909190915060008201518160000160006101000a81548173ffffffffffffffffffffffffffffffffffffffff021916908373ffffffffffffffffffffffffffffffffffffffff1602179055506020820151816001019080519060200190610360929190610a46565b506040820151816002015550506064600054424461037e9190611021565b6103889190611021565b6103929190611112565b6000819055506103d96040518060400160405280601681526020017f52616e646f6d20232067656e6572617465643a2025640000000000000000000081525060005461084c565b603260005411610528576104226040518060400160405280600781526020017f257320776f6e2100000000000000000000000000000000000000000000000000815250336108e8565b6000655af3107a4000905047811115610470576040517f08c379a0000000000000000000000000000000000000000000000000000000008152600401610467906111b5565b60405180910390fd5b60003373ffffffffffffffffffffffffffffffffffffffff168260405161049690611206565b60006040518083038185875af1925050503d80600081146104d3576040519150601f19603f3d011682016040523d82523d6000602084013e6104d8565b606091505b505090506104e581610984565b80610525576040517f08c379a000000000000000000000000000000000000000000000000000000000815260040161051c90611267565b60405180910390fd5b50505b3373ffffffffffffffffffffffffffffffffffffffff167f5f7e16dc676677766a70e9c5628aa6c54ddb8b6e5188e2ae1e1f17f1ffbea71642836040516105709291906112c0565b60405180910390a250565b600260009054906101000a900473ffffffffffffffffffffffffffffffffffffffff1681565b6000600154905090565b60046020528060005260406000206000915090505481565b60606003805480602002602001604051908101604052809291908181526020016000905b8282101561070b57838290600052602060002090600302016040518060600160405290816000820160009054906101000a900473ffffffffffffffffffffffffffffffffffffffff1673ffffffffffffffffffffffffffffffffffffffff1673ffffffffffffffffffffffffffffffffffffffff1681526020016001820180546106709061131f565b80601f016020809104026020016040519081016040528092919081815260200182805461069c9061131f565b80156106e95780601f106106be576101008083540402835291602001916106e9565b820191906000526020600020905b8154815290600101906020018083116106cc57829003601f168201915b50505050508152602001600282015481525050815260200190600101906105e7565b50505050905090565b6107aa816040516024016107289190611351565b6040516020818303038152906040527f41304fac000000000000000000000000000000000000000000000000000000007bffffffffffffffffffffffffffffffffffffffffffffffffffffffff19166020820180517bffffffffffffffffffffffffffffffffffffffffffffffffffffffff8381831617835250505050610a1d565b50565b6108478383836040516024016107c593929190611373565b6040516020818303038152906040527fe0e9ad4f000000000000000000000000000000000000000000000000000000007bffffffffffffffffffffffffffffffffffffffffffffffffffffffff19166020820180517bffffffffffffffffffffffffffffffffffffffffffffffffffffffff8381831617835250505050610a1d565b505050565b6108e482826040516024016108629291906113b8565b6040516020818303038152906040527f9710a9d0000000000000000000000000000000000000000000000000000000007bffffffffffffffffffffffffffffffffffffffffffffffffffffffff19166020820180517bffffffffffffffffffffffffffffffffffffffffffffffffffffffff8381831617835250505050610a1d565b5050565b61098082826040516024016108fe9291906113e8565b6040516020818303038152906040527f319af333000000000000000000000000000000000000000000000000000000007bffffffffffffffffffffffffffffffffffffffffffffffffffffffff19166020820180517bffffffffffffffffffffffffffffffffffffffffffffffffffffffff8381831617835250505050610a1d565b5050565b610a1a816040516024016109989190611433565b6040516020818303038152906040527f32458eed000000000000000000000000000000000000000000000000000000007bffffffffffffffffffffffffffffffffffffffffffffffffffffffff19166020820180517bffffffffffffffffffffffffffffffffffffffffffffffffffffffff8381831617835250505050610a1d565b50565b60008151905060006a636f6e736f6c652e6c6f679050602083016000808483855afa5050505050565b828054610a529061131f565b90600052602060002090601f016020900481019282610a745760008555610abb565b82601f10610a8d57805160ff1916838001178555610abb565b82800160010185558215610abb579182015b82811115610aba578251825591602001919060010190610a9f565b5b509050610ac89190610acc565b5090565b5b80821115610ae5576000816000905550600101610acd565b5090565b6000604051905090565b600080fd5b600080fd5b600080fd5b600080fd5b6000601f19601f8301169050919050565b7f4e487b7100000000000000000000000000000000000000000000000000000000600052604160045260246000fd5b610b5082610b07565b810181811067ffffffffffffffff82111715610b6f57610b6e610b18565b5b80604052505050565b6000610b82610ae9565b9050610b8e8282610b47565b919050565b600067ffffffffffffffff821115610bae57610bad610b18565b5b610bb782610b07565b9050602081019050919050565b82818337600083830152505050565b6000610be6610be184610b93565b610b78565b905082815260208101848484011115610c0257610c01610b02565b5b610c0d848285610bc4565b509392505050565b600082601f830112610c2a57610c29610afd565b5b8135610c3a848260208601610bd3565b91505092915050565b600060208284031215610c5957610c58610af3565b5b600082013567ffffffffffffffff811115610c7757610c76610af8565b5b610c8384828501610c15565b91505092915050565b600073ffffffffffffffffffffffffffffffffffffffff82169050919050565b6000610cb782610c8c565b9050919050565b610cc781610cac565b82525050565b6000602082019050610ce26000830184610cbe565b92915050565b6000819050919050565b610cfb81610ce8565b82525050565b6000602082019050610d166000830184610cf2565b92915050565b610d2581610cac565b8114610d3057600080fd5b50565b600081359050610d4281610d1c565b92915050565b600060208284031215610d5e57610d5d610af3565b5b6000610d6c84828501610d33565b91505092915050565b600081519050919050565b600082825260208201905092915050565b6000819050602082019050919050565b610daa81610cac565b82525050565b600081519050919050565b600082825260208201905092915050565b60005b83811015610dea578082015181840152602081019050610dcf565b83811115610df9576000848401525b50505050565b6000610e0a82610db0565b610e148185610dbb565b9350610e24818560208601610dcc565b610e2d81610b07565b840191505092915050565b610e4181610ce8565b82525050565b6000606083016000830151610e5f6000860182610da1565b5060208301518482036020860152610e778282610dff565b9150506040830151610e8c6040860182610e38565b508091505092915050565b6000610ea38383610e47565b905092915050565b6000602082019050919050565b6000610ec382610d75565b610ecd8185610d80565b935083602082028501610edf85610d91565b8060005b85811015610f1b5784840389528151610efc8582610e97565b9450610f0783610eab565b925060208a01995050600181019050610ee3565b50829750879550505050505092915050565b60006020820190508181036000830152610f478184610eb8565b905092915050565b600082825260208201905092915050565b7f41726520796f75204e7574732c2073746f7020776176696e672061742074686560008201527f206d6972726f722e000000000000000000000000000000000000000000000000602082015250565b6000610fbc602883610f4f565b9150610fc782610f60565b604082019050919050565b60006020820190508181036000830152610feb81610faf565b9050919050565b7f4e487b7100000000000000000000000000000000000000000000000000000000600052601160045260246000fd5b600061102c82610ce8565b915061103783610ce8565b9250827fffffffffffffffffffffffffffffffffffffffffffffffffffffffffffffffff0382111561106c5761106b610ff2565b5b828201905092915050565b7f576169742031356d000000000000000000000000000000000000000000000000600082015250565b60006110ad600883610f4f565b91506110b882611077565b602082019050919050565b600060208201905081810360008301526110dc816110a0565b9050919050565b7f4e487b7100000000000000000000000000000000000000000000000000000000600052601260045260246000fd5b600061111d82610ce8565b915061112883610ce8565b925082611138576111376110e3565b5b828206905092915050565b7f547279696e6720746f207769746864726177206d6f7265206d6f6e657920746860008201527f656e2074686520636f6e74726163742068617300000000000000000000000000602082015250565b600061119f603383610f4f565b91506111aa82611143565b604082019050919050565b600060208201905081810360008301526111ce81611192565b9050919050565b600081905092915050565b50565b60006111f06000836111d5565b91506111fb826111e0565b600082019050919050565b6000611211826111e3565b9150819050919050565b7f4661696c656420746f20776974686472617720746865206d6f6e657900000000600082015250565b6000611251601c83610f4f565b915061125c8261121b565b602082019050919050565b6000602082019050818103600083015261128081611244565b9050919050565b600061129282610db0565b61129c8185610f4f565b93506112ac818560208601610dcc565b6112b581610b07565b840191505092915050565b60006040820190506112d56000830185610cf2565b81810360208301526112e78184611287565b90509392505050565b7f4e487b7100000000000000000000000000000000000000000000000000000000600052602260045260246000fd5b6000600282049050600182168061133757607f821691505b6020821081141561134b5761134a6112f0565b5b50919050565b6000602082019050818103600083015261136b8184611287565b905092915050565b6000606082019050818103600083015261138d8186611287565b905061139c6020830185610cbe565b81810360408301526113ae8184611287565b9050949350505050565b600060408201905081810360008301526113d28185611287565b90506113e16020830184610cf2565b9392505050565b600060408201905081810360008301526114028185611287565b90506114116020830184610cbe565b9392505050565b60008115159050919050565b61142d81611418565b82525050565b60006020820190506114486000830184611424565b9291505056fe436f6e67726174756c6174696f6e7320796f75206a757374207265636569766564206120776176652066726f6d2025732077697468206d657373616765202573a2646970667358221220a124d0d46872fb2d4ccf0c466b32d4ac08ada51e0d85719c37f9c6a3c591971a64736f6c63430008090033596f20796f2c204920616d206120636f6e747261637420616e64204920616d20736d617274",
  "linkReferences": {},
  "deployedLinkReferences": {}
}